:02000000EC2FE3
:100A70000130F0020030031CF103F1027008710430
:100A800003190800382DF1003A30F0017102031803
:100A90004F2D30307102031C4F2DF001F00A700C05
:100AA0000800F000FA30F100FF30F200612D71080B
:100AB00072040319632D0130F1020030031CF203AC
:100AC000F2020C1E572D0C1E080070089900080039
:100AD000F401F501701C722D7208F4070318F50A71
:100AE0007308F5070310F20DF30D0310F10CF00C71
:100AF00070087104031D6A2D7508F1007408F00078
:100B00000800FA30F200FF30F300902D72087304F1
:100B10000319922D0130F2020030031CF303F3029B
:100B20008C1E862D8C1A962DF001982D1A08F00037
:100B3000F1017008080074080319A02D8510A12D7B
:100B400085147308F6007208F50075087604031919
:100B5000080074080319AE2D851D08007408031DD4
:100B6000B32D051D08000514C02538250510C02526
:100B700038250130F5020030031CF603F602A52DDE
:100B80002B08F1002A08F00008003C30831685008D
:100B9000831285010B3083168600831286011F1590
:100BA0009F141F14831618151930990018128312F8
:100BB000981783169816831218160A30B70010304B
:100BC000F0002730F1003825B7033708031DDF2D6B
:100BD000981CEC2D181218168C1EE82DED26B60068
:100BE00036080319E82D36085125E82D72087304DC
:100BF0000319080074080319FF2D8617002E8613A9
:100C00002508FB002408FA00F7017308F9007208B0
:100C1000F800780879040319080074080319122EE3
:100C2000861D08007408031D172E061C08000617F1
:100C300041263825061341263825200821040319AA
:100C40003A2EF70A7708F500F60121087602031D0F
:100C50002B2E20087502031C3A2EF7017B08230275
:100C6000031D342E7A082202013003183B2EFA02AB
:100C7000031CFB030130F8020030031CF903F902E6
:100C8000092E7B08F1007A08F0000800720873044E
:100C900003190800740803194F2E8513502E851769
:100CA0002908FB002808FA00F7017308F900720808
:100CB000F800780879040319080074080319622EF3
:100CC000851E08007408031D672E051E0800051701
:100CD000912638250513912638252008210403196B
:100CE0008A2EF70A7708F500F60121087602031D1F
:100CF0007B2E20087502031C8A2EF7017B08270231
:100D0000031D842E7A082602013003188B2EFA0266
:100D1000031CFB030130F8020030031CF903F90245
:100D2000592E7B08F1007A08F0000800FD007D08CC
:100D30008400203083130006031DA02EFD0A972E89
:100D40007D0884000930000603199E2EFB01FC017A
:100D5000FA017D0884002D300006031DB12EFA0A29
:100D6000B62E7D0884002B3000060319FD0A7D088D
:100D7000840000084325031CD92E7D0884007C08CC
:100D8000F1007B08F0000A30F200F30168258313BC
:100D900000087007F8000030031801307107F900EF
:100DA0007808D03EFB0079080318013EFF3EFC00A6
:100DB000B62E7A080319E82E7B09F8007C09F900A1
:100DC000F80A0319F90A7808F6007908F70008000C
:100DD0007C08F7007B08F60008008125B500783A0A
:100DE0000319FA2E793035060319FA2E7A303506B2
:100DF000031D492F8125AE002B3A031D012FAE01A3
:100E0000072F2D302E06031D2334AE01AE0A812597
:100E1000AF008125B0008125B1008125B200812578
:100E2000B300B4012F080319233430080319233405
:100E30003108031923343208031923343308031902
:100E400023342F309626770883120313AD007608DB
:100E5000AC0078303506031D352F2D08F3002C0823
:100E6000F2002E08F400F6252A3479303506031DE9
:100E7000412F2D08F3002C08F2002E08F40046261E
:100E80002A342D08F3002C08F2002E08F4009B25CC
:100E90002A3458303506031D7B2F8125B500533A7F
:100EA0000319562F45303506031D23348125AF0025
:100EB0008125B0008125B100B2012F080319233428
:100EC000300803192334310803192334533035060D
:100ED0002F30031D732F9626770883120313A50066
:100EE0007608A4002A349626770883120313A300F9
:100EF0007608A2002A3459303506031DAD2F81250E
:100F0000B500533A0319882F45303506031D2334A5
:100F10008125AF008125B0008125B100B2012F08E5
:100F200003192334300803192334310803192334F7
:100F3000533035062F30031DA52F962677088312D0
:100F40000313A9007608A8002A349626770883128E
:100F50000313A7007608A6002A345A303506031D6D
:100F6000CA2F8125AF008125B0008125B100B201D3
:100F70002F080319233430080319233431080319C7
:100F800023342F309626770883120313AB0076089C
:100F9000AA002A3441303506031D00348125AF00F4
:100FA0008125B0008125B1008125B200B3012F0851
:100FB0000319233430080319233431080319233467
:100FC0003208031923342F3096267708831203132F
:100FD000A1007608A0002A346430A0003230A101BC
:100FE000A2006430A301A4003C30A501A600783023
:100FF000A701A8005030A901AA00AB018301C52DAB
:02400E0018FF99
:00000001FF
